{
  "contractName": "Funder",
  "abi": [
    {
      "inputs": [],
      "name": "numofFunder",
      "outputs": [
        {
          "internalType": "uint256",
          "name": "",
          "type": "uint256"
        }
      ],
      "stateMutability": "view",
      "type": "function",
      "constant": true
    },
    {
      "stateMutability": "payable",
      "type": "receive",
      "payable": true
    },
    {
      "inputs": [],
      "name": "transfer",
      "outputs": [],
      "stateMutability": "payable",
      "type": "function",
      "payable": true
    },
    {
      "inputs": [
        {
          "internalType": "uint256",
          "name": "withdrawAmount",
          "type": "uint256"
        }
      ],
      "name": "withdraw",
      "outputs": [],
      "stateMutability": "nonpayable",
      "type": "function"
    }
  ],
  "bytecode": "0x608060405234801561001057600080fd5b506103f5806100206000396000f3fe6080604052600436106100385760003560e01c80632e1a7d4d146100445780638a4068dd1461006d578063ba680e40146100775761003f565b3661003f57005b600080fd5b34801561005057600080fd5b5061006b60048036038101906100669190610239565b6100a2565b005b6100756101a3565b005b34801561008357600080fd5b5061008c6101f8565b6040516100999190610275565b60405180910390f35b671bc16d674ec800008111156100ed576040517f08c379a00000000000000000000000000000000000000000000000000000000081526004016100e4906102ed565b60405180910390fd5b600033905060008173ffffffffffffffffffffffffffffffffffffffff16836040516101189061033e565b60006040518083038185875af1925050503d8060008114610155576040519150601f19603f3d011682016040523d82523d6000602084013e61015a565b606091505b505090508061019e576040517f08c379a00000000000000000000000000000000000000000000000000000000081526004016101959061039f565b60405180910390fd5b505050565b33600160008054815260200190815260200160002060006101000a81548173ffffffffffffffffffffffffffffffffffffffff021916908373ffffffffffffffffffffffffffffffffffffffff160217905550565b60005481565b600080fd5b6000819050919050565b61021681610203565b811461022157600080fd5b50565b6000813590506102338161020d565b92915050565b60006020828403121561024f5761024e6101fe565b5b600061025d84828501610224565b91505092915050565b61026f81610203565b82525050565b600060208201905061028a6000830184610266565b92915050565b600082825260208201905092915050565b7f43616e6e6f742077697468647261770000000000000000000000000000000000600082015250565b60006102d7600f83610290565b91506102e2826102a1565b602082019050919050565b60006020820190508181036000830152610306816102ca565b9050919050565b600081905092915050565b50565b600061032860008361030d565b915061033382610318565b600082019050919050565b60006103498261031b565b9150819050919050565b7f536f727279205769746864726f77206e6f742073756363657373000000000000600082015250565b6000610389601a83610290565b915061039482610353565b602082019050919050565b600060208201905081810360008301526103b88161037c565b905091905056fea2646970667358221220e9b33b62bb790e2748bf082bdf6c49c0ad12797ba41eb6a911e57b5675acbf0c64736f6c634300080d0033",
  "immutableReferences": {},
  "source": "// SPDX-License-Identifier: MIT\npragma solidity >=0.4.22 <0.9.0;\n\ncontract Funder{\n    uint public numofFunder;\n    mapping(uint => address) funders;\n    \n    receive()  external payable {\n\n    }\n\n    function transfer() external payable {\n        funders[numofFunder]= msg.sender;\n    }\n    function withdraw(uint withdrawAmount) external {\n        require(withdrawAmount <= 2000000000000000000,\"Cannot withdraw\");\n        address payable send=payable(msg.sender);\n        (bool sucess,)=send.call{value: withdrawAmount}(\"\");\n        require(sucess,\"Sorry Withdrow not success\");\n        // payable(msg.sender).transfer(withdrawAmount);\n    }\n    \n}\n\n",
  "sourcePath": "/home/shanto/Desktop/Projects/BlockChain/simple-Dapp/contracts/Funder.sol",
  "compiler": {
    "name": "solc",
    "version": "0.8.13+commit.abaa5c0e.Emscripten.clang"
  },
  "schemaVersion": "3.4.7",
  "updatedAt": "2022-05-19T20:29:56.379Z",
  "networkType": "ethereum",
  "devdoc": {
    "kind": "dev",
    "methods": {},
    "version": 1
  },
  "userdoc": {
    "kind": "user",
    "methods": {},
    "version": 1
  }
}