{
  "contractName": "Math",
  "abi": [
    {
      "inputs": [],
      "name": "a",
      "outputs": [
        {
          "internalType": "uint256",
          "name": "",
          "type": "uint256"
        }
      ],
      "stateMutability": "view",
      "type": "function"
    },
    {
      "inputs": [],
      "name": "b",
      "outputs": [
        {
          "internalType": "uint256",
          "name": "",
          "type": "uint256"
        }
      ],
      "stateMutability": "view",
      "type": "function"
    },
    {
      "inputs": [],
      "name": "add",
      "outputs": [
        {
          "internalType": "uint256",
          "name": "",
          "type": "uint256"
        }
      ],
      "stateMutability": "view",
      "type": "function"
    }
  ],
  "bytecode": "0x60806040526005600055600a60015534801561001a57600080fd5b506101b28061002a6000396000f3fe608060405234801561001057600080fd5b50600436106100415760003560e01c80630dbe671f146100465780634df7e3d0146100645780634f2be91f14610082575b600080fd5b61004e6100a0565b60405161005b91906100dc565b60405180910390f35b61006c6100a6565b60405161007991906100dc565b60405180910390f35b61008a6100ac565b60405161009791906100dc565b60405180910390f35b60005481565b60015481565b60006001546000546100be9190610126565b905090565b6000819050919050565b6100d6816100c3565b82525050565b60006020820190506100f160008301846100cd565b92915050565b7f4e487b7100000000000000000000000000000000000000000000000000000000600052601160045260246000fd5b6000610131826100c3565b915061013c836100c3565b9250827fffffffffffffffffffffffffffffffffffffffffffffffffffffffffffffffff03821115610171576101706100f7565b5b82820190509291505056fea2646970667358221220a4ed830793f365fc3afb520b5ce64fc3d531f4da7f1f1ef0b1e2c016799328df64736f6c634300080d0033",
  "immutableReferences": {},
  "source": "// SPDX-License-Identifier: MIT\npragma solidity >=0.4.22 <0.9.0;\ncontract Math{\n    uint public a=5;\n    uint public b=10;\nfunction add() public view returns(uint){\n        return a+b;\n    }\n}",
  "sourcePath": "/home/shanto/Desktop/Projects/BlockChain/simple-Dapp/contracts/Add.sol",
  "compiler": {
    "name": "solc",
    "version": "0.8.13+commit.abaa5c0e.Emscripten.clang"
  },
  "schemaVersion": "3.4.7",
  "updatedAt": "2022-05-18T21:47:45.776Z",
  "devdoc": {
    "kind": "dev",
    "methods": {},
    "version": 1
  },
  "userdoc": {
    "kind": "user",
    "methods": {},
    "version": 1
  }
}